:020000040800F2
:1000000050070020610200089D0200089F020008BE
:10001000A1020008A3020008A502000800000000D9
:10002000000000000000000000000000A70200081F
:10003000A902000800000000AB0200085D120008E1
:10004000AF020008AF020008AF020008AF020008CC
:10005000AF020008AF020008AF020008AF020008BC
:10006000AF020008AF020008AF020008AF020008AC
:10007000AF020008AF020008AF020008AF0200089C
:10008000AF020008AF020008AF020008AF0200088C
:10009000AF020008AF020008AF020008AF0200087C
:1000A000AF020008AF020008AF020008AF0200086C
:1000B000AF020008AF020008AF020008AF0200085C
:1000C000AF020008AF020008AF020008AF0200084C
:1000D000AF020008AF020008AF020008AF0200083C
:1000E000AF020008AF020008AF020008AF0200082C
:1000F000AF020008AF020008AF020008AF0200081C
:10010000AF020008AF020008AF020008AF0200080B
:10011000AF020008AF020008AF020008AF020008FB
:10012000AF020008AF020008AF020008AF020008EB
:10013000AF020008AF020008AF020008AF020008DB
:10014000AF020008AF020008AF020008AF020008CB
:10015000AF020008AF020008AF020008AF020008BB
:10016000AF020008AF020008AF020008AF020008AB
:10017000AF020008AF020008AF0200080000000054
:10018000AF020008AF02000800F002F800F03EF8ED
:100190000AA090E8000C82448344AAF10107DA45E2
:1001A00001D100F033F8AFF2090EBAE80F0013F0F6
:1001B000010F18BFFB1A43F0010318470C1300008E
:1001C0002C130000103A24BF78C878C1FAD852071F
:1001D00024BF30C830C144BF04680C6070470000C1
:1001E0000023002400250026103A28BF78C1FBD840
:1001F000520728BF30C148BF0B6070471FB501F0E0
:1002000039F900F084F81FBD10B510BD00F08BF86F
:100210001146FFF7F3FF01F0A7F800F0A9F803B4C7
:10022000FFF7F2FF03BC00F0B3F800000B49D1F870
:1002300000C04A685CF8043B1068184442F8040B9C
:100240008C4528BFA1F1DC0C8A4228BFA1F1DC0259
:10025000C1F800C04A6020F000407047E400002070
:1002600016481749174B99423CBF50F8042B41F8E8
:10027000042BF8D314494FF000028B4238BF43F8E7
:10028000042BFAD3DFF84400016841F470010160E7
:10029000BFF34F8FBFF36F8F0D480047FEE7FEE7B8
:1002A000FEE7FEE7FEE7FEE7FEE7FEE7FEE7FEE726
:1002B00008480949094A0A4B70470000E814000839
:1002C00000000020080000205007002088ED00E01A
:1002D0008901000850010020500700205003002031
:1002E000500300200B4910B5A1F17C020A4CC2E971
:1002F0003712372106E000EB104342F82130074B5C
:1003000000FB03400B1EA1F10101F4DC10BD012034
:10031000E8E7000084000020E119D666CD0D010059
:10032000704770477047754600F02CF8AE460500E0
:100330006946534620F00700854618B020B5FFF700
:10034000B7FFBDE820404FF000064FF000074FF028
:1003500000084FF0000B21F00701AC46ACE8C009E3
:10036000ACE8C009ACE8C009ACE8C0098D467047EC
:1003700010B50446AFF300802046BDE81040FFF7FB
:100380004EBF000000487047EC000020704700009E
:1003900001491820ABBEFEE72600020003490860B1
:1003A00000BF024909680029FBD170470000002006
:1003B0000348406920F4807001494861704700009B
:1003C000001000480348406940F4807001494861CA
:1003D0007047000000100048002000BF0B4909686A
:1003E00001F004010029F9D1002006E000220749AC
:1003F0000C3141F82020411CC8B20F28F6DD03491A
:10040000096841F00401014A116070470824004066
:100410002F48806D00F0805028B92D48806D40F045
:1004200080502B4988652A48806D2A48006800F46E
:10043000807060B92748006840F4807025490860E2
:1004400000BF2448006800F480700028F9D02048DC
:100450009030006820F005001D49C1F89000084662
:10046000D0F8900040F48030C1F890000846D0F8F1
:10047000900020F48030C1F8900007E014489030DC
:10048000006840F001001249C1F890001048903017
:10049000006800F002000028F0D00D48903000689D
:1004A00020F440700A49C1F890000846D0F8900046
:1004B00040F48070C1F890000846806D20F08050B4
:1004C00088650846806D40F40070886570470000BC
:1004D00000100240007000402448006820F06000D6
:1004E000224908600846006840F04000086008465D
:1004F000006820F01C0008600846006840F00C000E
:100500000860081D006840F4E050091D08600846B6
:10051000006840F070000860081F006820F080004C
:10052000091F08600846006820F00200086000BF4C
:100530000E480830006800F020000028F8D00B4872
:10054000006840F001000949086000BF0748083012
:10055000006800F001000028F8D000BF0348083010
:10056000006800F010000028F8D070470024004018
:10057000F0B50C4615460021002600220778342FDE
:1005800053D00FDCA7F12007142F5AD2DFE807F071
:100590002359595959435959282A253B5938593E05
:1005A000494A4B4C642F1FD008DCA7F13507052FB3
:1005B00047D2DFE807F03B3C3D3E3F00B02F27D05D
:1005C00004DC6D2F13D06E2F3BD113E0B52F14D068
:1005D000FF2F36D122E000214CE04AF2DD0149E054
:1005E000282147E0112145E04FF4734142E04BF2EE
:1005F00010213FE042F210213CE046F2840139E054
:100600004FF4204136E04AF2140133E0C02131E0DA
:100610004FF46C412EE04FF433412BE04FF6DD7187
:1006200028E000BF00BF00BF00BF00BF00BF00BF89
:1006300000BF00BF0778303FDFF864C03CF81710F8
:1006400018E007785B2F08DA0778402F05DD077878
:10065000413FDFF850C03CF8171007787B2F08DACD
:100660000778602F05DD0778613FDFF838C03CF878
:10067000171000BF00BF0CB141F002010DB141F0F5
:1006800020010C26002208E041FA06F707F00F07C8
:100690009F54371FFEB2571CFAB2042AF4DBF0BD98
:1006A000B21400087E1400087CB505460C460023F1
:1006B0001A461946204600F0FDF801230022114693
:1006C000601C00F0F7F8022300221146A01C00F085
:1006D000F1F8032301220021E01C00F0EBF80A20CE
:1006E000B5FBF0F03030C0B201900A20B5FBF0F15C
:1006F00000FB11503030009004230022114601A865
:1007000000F0D8F8052300221146684600F0D2F820
:100710007CBD00B500F008F8FFF77AFEFFF7DCFEBD
:10072000FFF75AFE00BD00005348C06C40F00100C6
:100730005149C8640846C06C40F00200C8640846CD
:10074000C06C40F00400C8640846C06C40F008006B
:10075000C8644FF090400068484908404FF090410D
:10076000086008460068464908434FF09041086019
:100770000846006A20F07F4008620846006A40F0A0
:100780003B4008620846406A3E4908404FF09041AD
:1007900048620846406A3C4908434FF0904148622D
:1007A0003A4800683A4908403849086008460068F5
:1007B000384908433549086034482030006800F063
:1007C000FF203249203108600846006840F0BB1025
:1007D00008602E48406A4FF60F7108402B49486266
:1007E0000846406A2C490843284948622B4800685B
:1007F0002B490840294908600846006829490843F0
:1008000026490860254820300068C0F30B002349C2
:100810002031086008460068234908431F492031F9
:1008200008601E48406A20F00F011C484162406A7F
:1008300040F00B01194841621C48006880B21B4916
:100840000860084600681A490843184908601748B4
:1008500020300068154920310860084600680860AB
:100860001248406A002111484162406A40F0BB31A1
:100870000E4841627047000000100240FF0FC03F69
:1008800000A02A8000F0FF0FBB0B00B0000400485E
:10089000F0F0F3000A0A08AAB000BBBB0008004849
:1008A0003F00FCFF80AA020000B0BBBB000C004868
:1008B0000000AAAAF8B505460E4617461C466B4628
:1008C0003A4631462846FFF753FE00BFFE4800680F
:1008D00000F004000028F9D1062C7DD2DFE804F0F6
:1008E0000398FCFBFAF9F8480C300068F749084017
:1008F000F5490C310860F4480838C069F3490840EC
:10090000F1490839C8610846406AF0490840EE4993
:10091000083948620846C06AEC490840EA49083983
:10092000C8629DF80000C007C00E9DF80010C1F31A
:10093000400140EAC1509DF80010C1F3800140EA37
:1009400081509DF80010C1F3C00140EAC100DE49AA
:100950000C3109680843DC490C3108609DF801003E
:10096000C007C00E9DF80110C1F3400140EAC1501C
:100970009DF80110C1F3800140EA81509DF80110FB
:10098000C1F3C00140EAC100CF490839C969084331
:10099000CD490839C8619DF80200C007C00E9DF816
:1009A0000210C1F3400140EAC1509DF80210C1F3AA
:1009B000800140EA81509DF80210C1F3C00140EA75
:1009C000C100C1490839496A0843BF49083948622A
:1009D0009DF80300C00700E02EE3C00E9DF8031051
:1009E000C1F3400140EAC1509DF80310C1F38001FA
:1009F00040EA81509DF80310C1F3C00140EAC100F4
:100A0000B1490839C96A0843AF490839C86214E3D3
:100A1000AD480C30006843F260018843AA490C31AC
:100A20000860A9480838C06943F260018843A649B4
:100A30000839C8610846406A43F260018843A24908
:100A4000083948620846C06A43F2600188439E49FB
:100A50000839C8629DF80000C007400E9DF80010DC
:100A6000C1F3400140EA41309DF80010C1F380011C
:100A700040EA01309DF80010C1F3C00140EA411086
:100A800091490C31096808438F490C3108609DF881
:100A90000100C007400E9DF80110C1F3400140EA7B
:100AA00041309DF80110C1F3800140EA01309DF80A
:100AB0000110C1F3C00140EA411083490839C969F6
:100AC000084381490839C8619DF80200C007400EFB
:100AD00003E028E27CE1CAE036E09DF80210C1F3B1
:100AE000400140EA41309DF80210C1F3800140EA24
:100AF00001309DF80210C1F3C00140EA4110724973
:100B00000839496A08437049083948629DF803006A
:100B1000C007400E9DF80310C1F3400140EA413088
:100B20009DF80310C1F3800140EA01309DF80310E5
:100B3000C1F3C00140EA411063490839C96A08435A
:100B400061490839C86278E25F480C300068604942
:100B500008405D490C3108605B480838C0695C4951
:100B6000084059490839C8610846406A5849084050
:100B70005549083948620846C06A554908405249F3
:100B80000839C8629DF80000C007000C9DF80010ED
:100B9000C1F3400140EA41709DF80010C1F38001AB
:100BA00040EA01709DF80010C1F3C00140EA8130B5
:100BB00045490C310968084343490C3108609DF8E8
:100BC0000100C007000C9DF80110C1F3400140EA8C
:100BD00041709DF80110C1F3800140EA01709DF859
:100BE0000110C1F3C00140EA813037490839C969B1
:100BF000084335490839C8619DF80200C007000C58
:100C00009DF80210C1F3400140EA41709DF80210C6
:100C1000C1F3800140EA01709DF80210C1F3C001E8
:100C200040EA813028490839496A08432649083989
:100C300048629DF80300C007000C9DF80310C1F343
:100C4000400140EA41709DF80310C1F3800140EA81
:100C500001709DF80310C1F3C00140EA81301A49C8
:100C60000839C96A084318490839C862E5E11648D5
:100C70000C30006820F0404013490C3108601248E5
:100C80000838806920F003010F4808388161C06985
:100C900020F040410C480838C161006A20F003018F
:100CA000094808380162406A20F040410648083887
:100CB0004162806A20F00301034808388162C06AFB
:100CC00020F04041004805E008240040E7FF3FFFD6
:100CD000FF3FFFCF0838C162006B20F00301DD4801
:100CE00001639DF80000C0079DF80010C1F3C0012A
:100CF00040EA8170D749143109680843D549143155
:100D000008609DF80000C0F380009DF80010C1F35A
:100D1000400140EA4100CF4989690843CD498861D3
:100D20009DF80100C0079DF80110C1F3C00140EA21
:100D30008170C849C9690843C649C8619DF8010066
:100D4000C0F380009DF80110C1F3400140EA41006A
:100D5000C049096A0843BF4908629DF80200C007FC
:100D60009DF80210C1F3C00140EA8170B949496A97
:100D70000843B84948629DF80200C0F380009DF81E
:100D80000210C1F3400140EA4100B249896A0843B8
:100D9000B04988629DF80300C0079DF80310C1F3B5
:100DA000C00140EA8170AB49C96A0843A949C862D9
:100DB0009DF80300C0F380009DF80310C1F34001CB
:100DC00040EA4100A349096B0843A249086334E1A2
:100DD000A0481430006820F040709E49143108602B
:100DE0009C48806920F00C019A488161C06920F01C
:100DF00040719848C161006A20F00C019548016279
:100E0000406A20F0407193484162806A20F00C01F2
:100E100090488162C06A20F040718E48C162006BC8
:100E200020F00C018B4801639DF80000C0F34000E6
:100E300040069DF80010C1F3800140EA0160854939
:100E40001431096808438349143108609DF8000093
:100E5000C007000F9DF80010C1F3C00140EA8100F7
:100E60007C49896908437B4988619DF80100C0F38A
:100E7000400040069DF80110C1F3800140EA016086
:100E80007449C96908437349C8619DF80100C007E6
:100E9000000F9DF80110C1F3C00140EA81006D49C7
:100EA000096A08436B4908629DF80200C0F34000DC
:100EB00040069DF80210C1F3800140EA01606549D7
:100EC000496A0843634948629DF80200C007000F61
:100ED0009DF80210C1F3C00140EA81005D49896AB2
:100EE00008435C4988629DF80300C0F34000400657
:100EF0009DF80310C1F3800140EA01605549C96AB9
:100F000008435449C8629DF80300C007000F9DF8CC
:100F10000310C1F3C00140EA81004E49096B084348
:100F20004C49086389E04B48143000684A4908403E
:100F30004849143108604748C06947490840454955
:100F4000C8610846406A4449084042494862084628
:100F5000C06A414908403F49C8629DF80000C00787
:100F6000800B9DF80010C1F3400140EA01209DF87C
:100F70000010C1F3800140EA41209DF80010C1F348
:100F8000C00140EA8160334914310968084331499E
:100F9000143108609DF80100C007800B9DF8011016
:100FA000C1F3400140EA01209DF80110C1F3800126
:100FB00040EA41209DF80110C1F3C00140EA816080
:100FC0002449C96908432349C8619DF80200C00744
:100FD000800B9DF80210C1F3400140EA01209DF80A
:100FE0000210C1F3800140EA41209DF80210C1F3D4
:100FF000C00140EA81601749496A084315494862BF
:101000009DF80300C007800B9DF80310C1F3400159
:1010100040EA01209DF80310C1F3800140EA41201D
:101020009DF80310C1F3C00140EA81600949C96A13
:1010300008430849C86200E000BF00BF00F00EF896
:1010400004480830006840F0040002490831086094
:10105000F8BD000000240040FFFCFDFB00BF274856
:10106000006800F004000028F9D124480838406ADC
:10107000234908402149083948620846C06A204986
:1010800008401E490839C8621E48007800F0010077
:1010900030B10846C06A40F4807118480838C1620F
:1010A0001848007800F0020038B114480838406A47
:1010B00040F480711148083841621248007800F00D
:1010C000040038B10D480838C06A40F000710B4880
:1010D0000838C1620B48007800F0080038B10748B2
:1010E0000838406A40F000710448083841620348FB
:1010F000006840F00400014908607047082400407F
:10110000FFFEFFFD040000202348C06C40F01200E9
:101110002149C8646FF03000204908600846006823
:1011200040F0100008601D480830006820F03000D2
:101130001A49083108600846006840F0300008602D
:10114000081F006820F00400091F086013480C30D5
:10115000006820F0300011490C3108606FF4403015
:101160000F4908600846006840F48030086008466F
:10117000806820F4403088600846806840F4403041
:1011800088600846406820F4807048600846C0685F
:1011900020F44030C860704700100240000400484E
:1011A000001000482248C06C40F001002049C8648B
:1011B0004FF09040006820F00C004FF09041086024
:1011C0000846006820F0300008600846006820F0FB
:1011D000C00008600846006820F4406008600846C7
:1011E000C06820F00800C8600846C06840F00800E9
:1011F000C8600846C06820F02000C8600846C06883
:1012000040F02000C8600846C06820F08000C86038
:101210000846C06840F08000C8600846C06820F4F6
:101220000060C8600846C06840F40060C86070474D
:10123000001002400348006820F0040001490860E3
:1012400070470000140400480348006840F00400A0
:101250000149086070470000140400480448006811
:1012600020B103480068401E014908607047000033
:101270000000002030B5024600204FF0E021086158
:10128000501E486148170F21002804DB0B071C0E75
:101290000F4B1C5406E00B071D0E0E4B00F00F0405
:1012A000241F1D5500BF00204FF0E0218861084633
:1012B000006940F0040008610846006940F002003F
:1012C00008610846006940F00100086130BD000077
:1012D00000E400E018ED00E010B50446012C04D154
:1012E000FFF7A8FFFFF76EF803E0FFF761F8FFF7DD
:1012F000ABFF10BD1FB5054600240AA30FCB8DE838
:101300000F000DE0002409E04FF4FA70FFF746F8F3
:101310000DEB04012846FFF7C7F9641C0C2CF3DB26
:10132000F0E700002047414D45204F564552202010
:101330002020202010B5FEF779FF052190FBF1F267
:1013400001FB120434B1012C06D0022C06D0032C70
:1013500008D105E0552010BD4420FCE74C20FAE7F9
:101360005220F8E74420F6E708B5032440A00068BF
:10137000009000274FF47A754FF000082046FEF7E2
:10138000B1FFFFF7C1FEFFF7C4F9A800FFF772FF36
:1013900069462046FFF788F9FFF704FF66E000275B
:1013A0002846FEF7FBFF4FF09040006900F0020076
:1013B00038B19DF800004C2803D1641C01271E3D64
:1013C0002EE04FF09040006900F0040038B19DF825
:1013D0000000522803D1641C01271E3D20E04FF07D
:1013E0009040006900F0080038B19DF800005528D1
:1013F00003D1641C01271E3D12E04FF090400069AC
:1014000000F0200038B19DF80000442803D1641C8E
:1014100001271E3D04E09DF80000202800D101278F
:101420003846FFF759FFFA2D00D2FA25444500D976
:10143000A0460FB1204600E0601E044614B94046A5
:10144000FFF758FFFFF776FF0646002005E0411C36
:101450001DF801100DF80010401C0328F7DB8DF873
:10146000036069462046FFF71FF900BF97E70000B9
:10147000202020204FF04070E1EE100A704700FE5F
:101480001467001D1447009D009C003F00FA1400E3
:10149000005341980019485A095A005F00FC015F47
:1014A00001FC00AF1404005BC018815AC900580049
:1014B000C005005F004200F5006700EA00AF00BF12
:1014C000004600FF00EF0000E814000800000020C4
:1014D00008000000C4010008F01400080800002003
:1014E00048070000E00100080000000000000000C4
:040000050800018965
:00000001FF
